:020000040000fa
:080000000002040000000000f2
:020000040000fa
:10040000cf8120000e7f24000e0188000000000034
:100410000c00070080d92000010020001100070017
:10042000000020000000e000020032000000020096
:100430000000000080070200000000000040da0019
:100440000000fe004440a900000020000000e00081
:100450000300320000002000a00188004440a800f2
:100460000000060091018800800078000000eb0089
:1004700015003700e280400032a0b4009101ba00bc
:10048000e280400032a0b4009102ba00e280400055
:1004900032a0b4000002eb00472bde00f507b200eb
:1004a000602ce10004003a000059eb008301e900f0
:1004b000fdff3e00040037006128e100010032002a
:1004c0000082eb00040007001101ba000200e00006
:1004d000e8ff3a00000006003159ba008301e90044
:1004e0000c0032002159ba008301e90008003200f3
:1004f0000400e00003003a00e280400032a0b400b3
:10050000f5ff370011d9ba008301e900faff3a007c
:100510008100e800e180400032a0b4000000060045
:100520000040da000000fe009440a90084c1bf0032
:1005300081cfb3000140600084e1b7008440a9008e
:100540000000060094c0a9008ac1bf0081cfb3009b
:10055000014060008ae1b70084c0a90000000600e5
:100560009720a90090c1bf0081cfb3000140600077
:1005700090e1b7008720a900000006008440a90090
:10058000e7416000510a20009140780082cfb3001b
:1005900082c0600083c070008000fd00a5e0b7004d
:1005a0008000fd00680060004300de004200dd00c6
:1005b00041092000914078000124a10080c0700012
:1005c0000100780094e0b7000000060084c0a90094
:1005d000e7416000710a20009140780082cfb300ab
:1005e00082c0600083c070008000fd00a7e0b700fb
:1005f0008000fd00680060004300de004600dd0072
:1006000041092000914078000164a10080c0700081
:100610000100780094e0b700000006008720a900e0
:10062000e7416000c419dd00010b20009140780013
:10063000f2c8b30082c0600083c070008000fd007b
:10064000b0e0b7008000fd00680060004300de00fd
:100650000040400071092000914078000114a10081
:1006600080c070000100780097e0b700000006002d
:10067000431820009341780084cfb30084c1610007
:100680008001fd0084e1b7008001fd00010c8800bd
:10069000120c8800200c880000000600a31820001f
:1006a0009341780084cfb30084c161008001fd00d4
:1006b0008ae1b7008001fd00310c8800420c8800ff
:1006c000500c8800000006000319200093417800b8
:1006d00084cfb30084c161008001fd0090e1b700c8
:1006e0008001fd00610c8800720c8800800c88007d
:1006f000000006000001780084c1bf0066006000b1
:10070000e60f500002003200120c8800010c880035
:1007100000000600000178008ac1bf00660060008a
:10072000e60f500002003200420c8800310c8800b5
:10073000000006000001780090c1bf006600600064
:10074000e60f500002003200720c8800610c880035
:10075000000006008820a900e7416000c419dd0000
:10076000410b200091407800f2c8b30082c06000c5
:1007700083c070008000fd00b4e0b7008000fd0081
:10078000680060004300de00004040008109200056
:10079000914078000114a10080c070000100780031
:1007a00098e0b7000000060060c2bf008080eb0048
:1007b0000008a3000800320060c2a90063c2bf00a5
:1007c0000028a3000200320041138000020037001d
:1007d00041138000f10fb200010078000000060014
:1007e0008000780063c2bf000028a30001003a0027
:1007f000f10fb200411388000000060084e0a90058
:10080000e7416000c419dd00710a200091407800c2
:10081000f2c8b30082c0600083c070008000fd0099
:10082000a7e0b7008000fd00680060004300de0024
:100830004700dd0041092000914078000174a100cb
:1008400080c070000100780094e0b700000006004e
:100850008500a900e7416000810a200091407800ee
:1008600082cfb30082c0600083c070008000fd00b2
:10087000a8e0b7008000fd00680060004300de00d3
:1008800051092000914078000104a10080c070004f
:100890000100780095e0b700000006000621ef0097
:1008a00061088800800888001061a9000000060027
:1008b0000a21ef00710888009008880000000600f7
:1008c000300888000000060050088800000006007c
:1008d00003f0a200889fbe008a9fbe008c1f780094
:1008e0002b010700320133006450e1004f00320059
:1008f0006420e1005200320003826c0007003b00dc
:100900000905d0000306d000820f54000c065d00dc
:1009100002003900020032008901780003067800e5
:100920008582550004003d000003fd008103fd00a9
:100930008502ea008b854200840f720002003b00b2
:1009400060001000e08018006011b8000005eb00a6
:100950007a28e1000a00390006007800c75ddd0052
:10096000f707b200878075002d0037008281710083
:100970000a017800610560008180d1000080d30009
:100980008502e900f9ff3b00060440008784480027
:1009900002003b0060041400e0841c000988a300ee
:1009a000070032008a817100828171006101640058
:1009b0008904d1000884d3008b05e80017003700b4
:1009c0000978a30013003a000b00e0001300340084
:1009d0008b05e9000804440089844c000a44740033
:1009e0000978a3000d003a000b00e0000700340076
:1009f0008b05e9000804440089844c0001003a009a
:100a00000b0020000978a300f7ff32000001eb0083
:100a100002003700828171000a017800a1000700fe
:100a20000cf0a70001f0a000ea0037006420e1000c
:100a300002003a00838f6c00ea0033000801be0018
:100a40000200be00e3003700889fbe008a9fbe0000
:100a50008c1f7800ce000700d500330003866c00a1
:100a60006450e1002e0032006420e10033003200c7
:100a70006150e1002f0032006120e10031003200be
:100a800085855500eb07b000090020000804200010
:100a9000050037000804440089844c000a00310036
:100aa0000603430087834b000001530081815b00f4
:100ab000f8ff33000203be000800a0000804440051
:100ac00089844c00f6ff3900c639dd0083017300cc
:100ad00001003200130020008904d1000884d300f3
:100ae0000998a300050032000800a7000300a00039
:100af0008904d1000884d3008b05e8008904d10063
:100b00000884d3000001eb000281d20065000700d9
:100b100001f0a1000cf0a70001f0a000ad0037002b
:100b20006420e100af0032000801be000200be00f8
:100b3000f7ff37006120e100aa0032006000b80032
:100b4000f3ff37000000200001f82700f0ff370016
:100b5000839f68000100e00002003d00600010007b
:100b6000e08018000300e00002003d006001110079
:100b7000e0811900d20007004f00e00002003b00b6
:100b800060001000e0801800000006000001be00b8
:100b90006a0007000470a70003f0a10003f8a30097
:100ba00013003a006509b100100032000900350059
:100bb0006928e1000200350001002800000005005e
:100bc00000004000818048008502e900fcff3a00f7
:100bd00000000600f88f4200050035008100d100ba
:100be0000080d3008502e800fcff3a000000060008
:100bf0008000eb0000000500889fbe008a9fbe00b9
:100c0000010578000100e0000400350008003c0008
:100c10000000e000200032000500370060001000f6
:100c2000e080180002003b0001f02c001a003700a1
:100c30000004be006011b8006b0920000982cf00db
:100c4000020039000882cf000441b000694252001e
:100c50000e00320008003b008281710061016400d7
:100c60008904d1000884d3008b05e8000442e80021
:100c7000f9ff3a00050037000804440089844c005d
:100c80008b05e9000442e900fbff3a00050007007c
:100c90000af0a70001f0a0004f05be004f04be00ff
:100ca0000000060081002000618055000b003d001f
:100cb0000b00200061fe2f000100e1001d00340048
:100cc00082817100610164008904d1000884d3002d
:100cd0000000e800faff3a007100200061006400a3
:100ce000030070000200600009003200610444004b
:100cf000e0844c000988a500050032008b05e8005f
:100d00006808e10002003a008904d1000884d30099
:100d1000f20f20000258e10005003d00c75ddd0034
:100d2000f907b2008980750008007800000006000d
:100d30000bf827008b00780000000500c70ade00d2
:100d4000f107b200f50fb20008003200e1cf420017
:100d5000020032000170a00024000500810f700025
:100d6000010032000408050044000500810f7000f6
:100d700002003a00140005008502e900000040006e
:100d800081c04800fcff3b000170a000240005006a
:100d90000004be00e9ff07000003be000405be001a
:100da0000200be00e5ff0700844f7500000006004a
:100db0000200be006450e100050036006420e1003e
:100dc000020036000968a30001003a000800be00d6
:100dd0000160a0004f0678004f05be004f04be0022
:100de00000000600f0ff2f00f1ff2700f9ff370099
:100df000889fbe008a9fbe008c1f7800e4ff07001a
:100e0000ebff330003866c006450e10024003200e5
:100e10006420e100270032006150e100220032002e
:100e20006120e100210032008b854200eb07b10018
:100e30000134b800003ab8000804420089844a002e
:100e4000013ab8000030b8008880400009014a002b
:100e50000400330000004000818048000201490086
:100e60008b05e900c909dd00830170000100320033
:100e700013002000c814de004814dd004709de001e
:100e80001200b200c808de000884700085ff070069
:100e900001f0a1000cf0a70001f0a000cdff370089
:100ea0006120e100cfff32000801be000200be0059
:100eb000f7ff37006150e100fcff3a00c9ff37003f
:100ec0006022b800060220000000d0008180d2001d
:100ed0000482d2008582d2000000a00002025200eb
:100ee00083825a00030031000202420083824a00da
:100ef0000000a1000603e900f3ff3a00000006002d
:020000040000fa
:0200000401f009
:04000800ffff0000f6
:020000040000fa
:0200000401f009
:04000c007bff000076
:020000040000fa
:0200000401f009
:040010003eff0000af
:020000040000fa
:0200000401f009
:040014007fff00006a
:020000040000fa
:1000080090020000900200009002000090020000a0
:100018009002000090020000900200009002000090
:100028009002000090020000900200009002000080
:100038009002000090020000900200009002000070
:100048009002000090020000900200009002000060
:100058009002000090020000900200009002000050
:100068009002000090020000900200009002000040
:100078009002000090020000900200009002000030
:100088009002000090020000900200009002000020
:100098009002000090020000900200009002000010
:1000a800900200005e0d0000900200009002000027
:1000b80090020000900200009002000090020000f0
:1000c80090020000900200009002000090020000e0
:1000d80090020000900200009002000090020000d0
:1000e80090020000900200009002000090020000c0
:1000f80090020000900200009002000090020000b0
:10010800900200009002000090020000900200009f
:10011800900200009002000090020000900200008f
:10012800900200009002000090020000900200007f
:10013800900200009002000090020000900200006f
:10014800900200009002000090020000900200005f
:10015800900200009002000090020000900200004f
:10016800900200009002000090020000900200003f
:10017800900200009002000090020000900200002f
:10018800900200009002000090020000900200001f
:10019800900200009002000090020000900200000f
:1001a80090020000900200009002000090020000ff
:1001b80090020000900200009002000090020000ef
:1001c80090020000900200009002000090020000df
:1001d80090020000900200009002000090020000cf
:1001e80090020000900200009002000090020000bf
:0801f8009002000090020000db
:020000040000fa
:10020800900200009002000090020000900200009e
:10021800900200009002000090020000900200008e
:10022800900200009002000090020000900200007e
:10023800900200009002000090020000900200006e
:10024800900200009002000090020000900200005e
:10025800900200009002000090020000900200004e
:10026800900200009002000090020000900200003e
:10027800900200009002000090020000900200002e
:10028800900200009002000090020000900200001e
:10029800900200009002000090020000900200000e
:1002a800900200005e0d0000900200009002000025
:1002b80090020000900200009002000090020000ee
:1002c80090020000900200009002000090020000de
:1002d80090020000900200009002000090020000ce
:1002e80090020000900200009002000090020000be
:1002f80090020000900200009002000090020000ae
:10030800900200009002000090020000900200009d
:10031800900200009002000090020000900200008d
:10032800900200009002000090020000900200007d
:10033800900200009002000090020000900200006d
:10034800900200009002000090020000900200005d
:10035800900200009002000090020000900200004d
:10036800900200009002000090020000900200003d
:10037800900200009002000090020000900200002d
:10038800900200009002000090020000900200001d
:10039800900200009002000090020000900200000d
:1003a80090020000900200009002000090020000fd
:1003b80090020000900200009002000090020000ed
:1003c80090020000900200009002000090020000dd
:1003d80090020000900200009002000090020000cd
:1003e80090020000900200009002000090020000bd
:0803f8009002000090020000d9
:020000040000fa
:100f00004000fa000000eb0070179800100020006d
:100f10000100200050179800611798001000200071
:100f200001002000301798004117980010002000a1
:100f30000100200010179800211798000000eb0016
:100f4000300f98000000eb00200f98000000eb002d
:100f5000100f980020032000000f98000000eb0005
:100f6000700798000040eb00404f98000040eb00f5
:100f7000304f98000040eb00204f98000040eb00fd
:100f8000104f98000040eb00004f98000040eb002d
:100f9000704798000040eb00604798000040eb006d
:100fa000504798000040eb00404798000040eb009d
:100fb000304798000040eb00204798000040eb00cd
:100fc000104798000040eb00004f78000008280010
:100fd0001013880000002800001388000000eb00b8
:100fe0002017880050fd070070ff2f0063fd0700e9
:100ff000921520007115200050ff2d009cfd070068
:1010000050fd070070ff2f0070fd070092152000b3
:101010007115200050ff2d00a0fd070070ff2f006c
:10102000f6fd07000000eb0025fe070091152000eb
:10103000f0f82f0019fe0700000028008008880043
:1010400047fd070070ff2f0074fd07000081eb00d3
:10105000d1ff2f00d0ff2d009bfd0700d1ff2f00f7
:101060000000eb00b3fd070070ff2f00f8fd070044
:101070000000eb0014fe0700e1ff2f00f0f82f0046
:101080000bfe07000000280090088800000e2000da
:10109000001988000000eb001019880020f02100e2
:1010a0002019880000ff2f00601988000080eb00e5
:1010b000501988000000eb00701988000000eb0058
:1010c0008019880021e3a800e0ff2f00a1fd0700a0
:1010d00000003700e7e2a900e7e2a800dac2bf009b
:1010e000704060008040eb00717f98000004e000d9
:1010f00002003a0012c0b300727f9800dac2bf004b
:10110000684060008040eb00617f98000004e000d0
:1011100002003a0012c0b300627f9800fe7890008f
:101120006e79900002c060000004e000030032000d
:101130000040eb00104798000200370010c0b300d9
:1011400010479800dac2bf000044b2008040eb00b4
:10115000517f98000004e00002003a0012c0b30082
:10116000527f9800dac2bf0001c8b300014060009e
:101170008040eb00417f98000004e00002003a004c
:1011800012c0b300427f9800de7890004e79900044
:1011900002c060000004e000030032000040eb00e9
:1011a000204798000200370010c0b3002047980085
:1011b00000408000e10f50008f003a000000eb007b
:1011c00000408800e7e2a90010408000e40f5000d2
:1011d0000f003a000000eb00104088009000200053
:1011e000d04088000e189000e10f500002003a0035
:1011f000c0408000204f98000e189000e20f500071
:101200007d003a00c0408000404798007a003700d7
:1012100010408000e10f500034003a00c0408000d0
:10122000001f98008040eb00317f98000e1890005e
:10123000e10f500002003a0012c0b300327f980064
:101240000040eb00207f98000e189000eb0f50003c
:1012500002003a0011c0b300217f98003e7990004f
:10126000ae789000014069000004e0000300320005
:101270006e4090000080fb00d04088000041eb00f1
:10128000127f98000e189000e20f500002003a0002
:1012900010c0b300107f98008040eb00017f9800e1
:1012a0000e189000ec0f500002003a0012c0b3007c
:1012b000027f98009e7890000e79900002c068002e
:1012c0000004e000030032000e4890000080fb00a4
:1012d000d04088000e189000e30f500046003a00fe
:1012e0000000eb00d0408800430037001040800031
:1012f000e20f500031003a000040eb007077980098
:101300000e189000e10f500002003a0011c0b30027
:10131000717798000041eb00627798000e189000fa
:10132000eb0f500002003a0010c0b3006077980045
:10133000fe7090006e71900002c068000004e00032
:10134000030032005e4090000080fb00d040880027
:101350000040eb00507798000e189000e20f50000c
:1013600002003a0011c0b300517798000041eb0031
:10137000427798000e189000ec0f500002003a00df
:1013800010c0b30040779800de7090004e7190005e
:1013900002c068000004e000020032000000eb0020
:1013a000d04088000e189000e30f500012003a0061
:1013b0000000eb00d04088000f0037001040800094
:1013c000e30f50000c003a000000eb00d040880012
:1013d0000e189000e10f500002003a00c04080005b
:1013e000104f98000e189000e20f500002003a00d3
:1013f000c0408000304798000040eb0030779800f4
:101400002e4090000004e00002003a0011c0b3003a
:10141000317798000041eb00227798001e40900041
:101420000004e00002003a0010c0b30020779800ea
:10143000be7090002e71900002c060000004e000b9
:10144000040032000040eb00304798000040eb0001
:10145000404798003e4090000080fb00200f98001d
:101460004e4090000080fb00100f98002e08900066
:101470008080e8000000eb009efc07001e08900042
:101480008080e8000000eb00a2fc07001e489000ee
:101490000080fb00300f98002e4890000081fb0078
:1014a000be089000f00f20000088b9000000410045
:1014b000300f9800be08900080162000808f5000ea
:1014c0000200360080162000300f98000000eb006c
:1014d000401988002023a80020c3bf00614060009d
:1014e0000004e000fcff32002003a9000018800087
:1014f000700f98007e0890004200de00700f980088
:101500007e089000004f9800b04080000000e80086
:10151000b0408800b0408000f00f5000edfe3a006f
:101520000000eb00b04088009e109000410f980032
:10153000ce0890003e089000540007007007980005
:1015400030002000401988002023a80020c3bf00dd
:10155000614060000004e000fcff32002003a900ad
:1015600002188000620f98006e0890000000400092
:1015700032002000110009000280d800400f9800be
:101580004e0890006101b8003e109000ce1090000f
:1015900000004100818049003017980041179800f1
:1015a000304080000000e80030408800314080007a
:1015b00080382100808f5000c6fe3a003e10900017
:1015c000ce109000823821000300200060fd07004b
:1015d00030179800411798000000eb003040880059
:1015e0003e109000ce109000101798002117980020
:1015f0006000b80030179800411798005e11900005
:10160000ee1190001e109000ae10900002004000fd
:101610008380480050179800611798007e10900052
:101620000000e800701798007e109000fe0f500038
:10163000a8fe3a000000eb00701798005e109000c2
:10164000ee109000e20120000300200040fd0700a2
:101650005017980061179800de109000510f980005
:101660005e089000604798005e0890004800de0029
:10167000500f98005e089000504798006000b80036
:10168000501798006117980092fe37002000fa006a
:10169000881f780010079800210798009e0090008e
:1016a0002e009000808f50005d0039004140800086
:1016b0001e009000810050002e009000808f50008e
:1016c00020003600c0fd2f00000f78009040800001
:1016d000700f98008040eb00415f9800803e200032
:1016e0007e099000800f51000200340010c0b3004a
:1016f000405f9800fe0890000100e80090408800dc
:101700004e5990000204e000d9003200a040800051
:10171000ec0f500003003c00a04080000000e800f7
:10172000a04088000000eb0090408800a0408000ae
:10173000800078001e0090000088b900804088007a
:10174000cb00370050408000500f9800634080006d
:101750009e0090002e009000008050000001e800e4
:10176000110009008281d8008040eb00015f9800e1
:101770005e099000800f51000200360010c0b300d7
:10178000005f9800de0890000100e80050408800eb
:101790000e5990000204e0000f0032000000eb0040
:1017a00050408800ae0090001e009000808f5000d6
:1017b00003003e00804080000000e8008040880078
:1017c00081408000801f2100808f50000200360081
:1017d000801f2100804088001e0090008000e800eb
:1017e0002e0090000001e800110009008280d8005e
:1017f0000000400000017800804080006d00b900ca
:10180000000141009e0090002e009000808050005a
:10181000d02620000088b900000f41009400370056
:101820009e0090002e009000808f500090003100ac
:101830002e0090009e00900001005000f40f500018
:10184000050036000000eb00804088000000eb003f
:10185000a0408800860037000040eb0070579800d9
:10186000ae0090001e009000808f500002003600f5
:1018700011c0b300715798002e009000e600500090
:101880000041eb00625798001e009000808f5000ce
:101890000200310010c0b30060579800fe50900065
:1018a0006e51900002c060000004e000670032004a
:1018b00050408000200f9800704080008040eb0076
:1018c000215798002e099000800f51000200360029
:1018d00010c0b30020579800ae0890000100e80047
:1018e000504088002e5190000204e00008003200b1
:1018f0000000eb0050408800804080000000e000c5
:1019000003003200804080000000e9008040880031
:101910001e0090008000e8002e0090000001e8000a
:10192000110009008280d800000040000004780007
:101930006140b900b0fc070070079800010f9800e3
:101940000800e00007003d000200200003782400aa
:101950007e0090008e089000defb07007007980064
:10196000010f9800884080006140b900a2fc070088
:1019700050079800610798000800e00007003d004c
:1019800002002000037824005e009000ee0090002a
:10199000d0fb07005007980061079800d2cc2c00bc
:1019a000c3f823005e009000ee00900026fc0700c4
:1019b00002002000031524000dfd07000001be00f9
:1019c0007e0090008e089000c2fb07006ffc0700ad
:1019d000000f7800d0ff2f009e0f1000020036008d
:1019e000d0ff2f00000f7800514080004107980081
:1019f000704080000041eb0062479800ce009000ec
:101a0000808f50000200360012c0b3006247980079
:101a1000ce0090000100e800504088006e41900028
:101a20000204e000120032000000eb005040880089
:101a3000804080000000e0000d0032008040800007
:101a40000000e90080408800090037002e00900067
:101a5000e60050001e009000808f50000400360009
:101a60009e009000200320000088b900000f78003d
:101a7000d0ff2f009e0f100002003600d0ff2f0075
:101a8000000f7800ae009000c02b2000808f500027
:101a9000020036000000eb00000f78000080eb0031
:101aa0009e0050000000eb0022fb07001000200009
:101ab0004f0478000080fa00000006003600f800ad
:101ac000809fbe00829fbe00849fbe00869fbe0096
:101ad0000000fa008820a90060c2a900e7e2a8007f
:101ae00031fb0700c0408800100020000040880043
:101af000104080000000e8001040880060c2bf0075
:101b0000624060000004e00002003a00d040800023
:101b100033fb07000080fa004f03be004f02be00f7
:101b20004f01be004f00be003600f9000040060025
:020000040000fa
:101b30000008000018000000020000000000000083
:101b40000000000000000500000000004038a80070
:101b50002f00000000000100000000001808000035
:0c1b600004000000000000000000000075
:00000001FF
